{
  "_format": "hh-sol-artifact-1",
  "contractName": "auction",
  "sourceName": "contracts/Auction.sol",
  "abi": [
    {
      "anonymous": false,
      "inputs": [
        {
          "indexed": false,
          "internalType": "uint256",
          "name": "auctionId",
          "type": "uint256"
        },
        {
          "indexed": false,
          "internalType": "address",
          "name": "bidder",
          "type": "address"
        },
        {
          "indexed": false,
          "internalType": "uint256",
          "name": "bidAmount",
          "type": "uint256"
        }
      ],
      "name": "NewBid",
      "type": "event"
    },
    {
      "inputs": [
        {
          "internalType": "uint256",
          "name": "_id",
          "type": "uint256"
        }
      ],
      "name": "PayToBuy",
      "outputs": [],
      "stateMutability": "payable",
      "type": "function"
    },
    {
      "inputs": [
        {
          "internalType": "uint256",
          "name": "",
          "type": "uint256"
        }
      ],
      "name": "auctions",
      "outputs": [
        {
          "internalType": "uint256",
          "name": "AuctionId",
          "type": "uint256"
        },
        {
          "internalType": "address",
          "name": "auctionStarter",
          "type": "address"
        },
        {
          "internalType": "string",
          "name": "about",
          "type": "string"
        },
        {
          "internalType": "uint256",
          "name": "startBidPrice",
          "type": "uint256"
        },
        {
          "internalType": "address",
          "name": "highestBidder",
          "type": "address"
        },
        {
          "internalType": "uint256",
          "name": "highestBid",
          "type": "uint256"
        },
        {
          "internalType": "uint256",
          "name": "startTime",
          "type": "uint256"
        },
        {
          "internalType": "bool",
          "name": "auctionActive",
          "type": "bool"
        },
        {
          "internalType": "address",
          "name": "owner",
          "type": "address"
        },
        {
          "internalType": "string",
          "name": "hash",
          "type": "string"
        }
      ],
      "stateMutability": "view",
      "type": "function"
    },
    {
      "inputs": [
        {
          "internalType": "uint256",
          "name": "_id",
          "type": "uint256"
        },
        {
          "internalType": "uint256",
          "name": "bidPrice",
          "type": "uint256"
        }
      ],
      "name": "bid",
      "outputs": [],
      "stateMutability": "nonpayable",
      "type": "function"
    },
    {
      "inputs": [
        {
          "internalType": "uint256",
          "name": "_id",
          "type": "uint256"
        }
      ],
      "name": "endBid",
      "outputs": [],
      "stateMutability": "nonpayable",
      "type": "function"
    },
    {
      "inputs": [
        {
          "internalType": "uint256",
          "name": "",
          "type": "uint256"
        },
        {
          "internalType": "uint256",
          "name": "",
          "type": "uint256"
        }
      ],
      "name": "events",
      "outputs": [
        {
          "internalType": "address",
          "name": "Bidder",
          "type": "address"
        },
        {
          "internalType": "uint256",
          "name": "price",
          "type": "uint256"
        },
        {
          "internalType": "uint256",
          "name": "Time",
          "type": "uint256"
        },
        {
          "internalType": "string",
          "name": "about",
          "type": "string"
        }
      ],
      "stateMutability": "view",
      "type": "function"
    },
    {
      "inputs": [],
      "name": "showAuctions",
      "outputs": [
        {
          "components": [
            {
              "internalType": "uint256",
              "name": "AuctionId",
              "type": "uint256"
            },
            {
              "internalType": "address",
              "name": "auctionStarter",
              "type": "address"
            },
            {
              "internalType": "string",
              "name": "about",
              "type": "string"
            },
            {
              "internalType": "uint256",
              "name": "startBidPrice",
              "type": "uint256"
            },
            {
              "internalType": "address",
              "name": "highestBidder",
              "type": "address"
            },
            {
              "internalType": "uint256",
              "name": "highestBid",
              "type": "uint256"
            },
            {
              "internalType": "uint256",
              "name": "startTime",
              "type": "uint256"
            },
            {
              "internalType": "bool",
              "name": "auctionActive",
              "type": "bool"
            },
            {
              "internalType": "address",
              "name": "owner",
              "type": "address"
            },
            {
              "internalType": "string",
              "name": "hash",
              "type": "string"
            }
          ],
          "internalType": "struct auction.Auction[]",
          "name": "",
          "type": "tuple[]"
        }
      ],
      "stateMutability": "view",
      "type": "function"
    },
    {
      "inputs": [
        {
          "internalType": "uint256",
          "name": "_id",
          "type": "uint256"
        }
      ],
      "name": "showEvents",
      "outputs": [
        {
          "components": [
            {
              "internalType": "address",
              "name": "Bidder",
              "type": "address"
            },
            {
              "internalType": "uint256",
              "name": "price",
              "type": "uint256"
            },
            {
              "internalType": "uint256",
              "name": "Time",
              "type": "uint256"
            },
            {
              "internalType": "string",
              "name": "about",
              "type": "string"
            }
          ],
          "internalType": "struct auction.eventList[]",
          "name": "",
          "type": "tuple[]"
        }
      ],
      "stateMutability": "view",
      "type": "function"
    },
    {
      "inputs": [
        {
          "internalType": "string",
          "name": "_about",
          "type": "string"
        },
        {
          "internalType": "uint256",
          "name": "_startBidPrice",
          "type": "uint256"
        },
        {
          "internalType": "string",
          "name": "url",
          "type": "string"
        }
      ],
      "name": "startAuction",
      "outputs": [],
      "stateMutability": "nonpayable",
      "type": "function"
    }
  ],
  "bytecode": "0x6080604052600060025534801561001557600080fd5b50612507806100256000396000f3fe60806040526004361061007b5760003560e01c80638a24bcb71161004e5780638a24bcb714610148578063a028cc6814610188578063adf800d8146101b1578063dbd30865146101da5761007b565b80632ebc8f2d14610080578063571a26a0146100bd578063598647f81461010357806389811ec11461012c575b600080fd5b34801561008c57600080fd5b506100a760048036038101906100a291906115ef565b610205565b6040516100b49190611821565b60405180910390f35b3480156100c957600080fd5b506100e460048036038101906100df91906115ef565b610372565b6040516100fa9a999897969594939291906118c6565b60405180910390f35b34801561010f57600080fd5b5061012a60048036038101906101259190611970565b610553565b005b610146600480360381019061014191906115ef565b610857565b005b34801561015457600080fd5b5061016f600480360381019061016a9190611970565b610c94565b60405161017f94939291906119b0565b60405180910390f35b34801561019457600080fd5b506101af60048036038101906101aa9190611b31565b610d89565b005b3480156101bd57600080fd5b506101d860048036038101906101d391906115ef565b610fab565b005b3480156101e657600080fd5b506101ef6112dc565b6040516101fc9190611d6e565b60405180910390f35b6060600080838152602001908152602001600020805480602002602001604051908101604052809291908181526020016000905b8282101561036757838290600052602060002090600402016040518060800160405290816000820160009054906101000a900473ffffffffffffffffffffffffffffffffffffffff1673ffffffffffffffffffffffffffffffffffffffff1673ffffffffffffffffffffffffffffffffffffffff16815260200160018201548152602001600282015481526020016003820180546102d690611dbf565b80601f016020809104026020016040519081016040528092919081815260200182805461030290611dbf565b801561034f5780601f106103245761010080835404028352916020019161034f565b820191906000526020600020905b81548152906001019060200180831161033257829003601f168201915b50505050508152505081526020019060010190610239565b505050509050919050565b6001818154811061038257600080fd5b90600052602060002090600902016000915090508060000154908060010160009054906101000a900473ffffffffffffffffffffffffffffffffffffffff16908060020180546103d190611dbf565b80601f01602080910402602001604051908101604052809291908181526020018280546103fd90611dbf565b801561044a5780601f1061041f5761010080835404028352916020019161044a565b820191906000526020600020905b81548152906001019060200180831161042d57829003601f168201915b5050505050908060030154908060040160009054906101000a900473ffffffffffffffffffffffffffffffffffffffff16908060050154908060060154908060070160009054906101000a900460ff16908060070160019054906101000a900473ffffffffffffffffffffffffffffffffffffffff16908060080180546104d090611dbf565b80601f01602080910402602001604051908101604052809291908181526020018280546104fc90611dbf565b80156105495780601f1061051e57610100808354040283529160200191610549565b820191906000526020600020905b81548152906001019060200180831161052c57829003601f168201915b505050505090508a565b6002548210610597576040517f08c379a000000000000000000000000000000000000000000000000000000000815260040161058e90611e3c565b60405180910390fd5b600182815481106105ab576105aa611e5c565b5b906000526020600020906009020160070160009054906101000a900460ff16610609576040517f08c379a000000000000000000000000000000000000000000000000000000000815260040161060090611ed7565b60405180910390fd5b806001838154811061061e5761061d611e5c565b5b90600052602060002090600902016005015410610670576040517f08c379a000000000000000000000000000000000000000000000000000000000815260040161066790611f43565b60405180910390fd5b336001838154811061068557610684611e5c565b5b906000526020600020906009020160040160006101000a81548173ffffffffffffffffffffffffffffffffffffffff021916908373ffffffffffffffffffffffffffffffffffffffff16021790555080600183815481106106e9576106e8611e5c565b5b90600052602060002090600902016005018190555060008083815260200190815260200160002060405180608001604052803373ffffffffffffffffffffffffffffffffffffffff1681526020018381526020014281526020016040518060400160405280600381526020017f6269640000000000000000000000000000000000000000000000000000000000815250815250908060018154018082558091505060019003906000526020600020906004020160009091909190915060008201518160000160006101000a81548173ffffffffffffffffffffffffffffffffffffffff021916908373ffffffffffffffffffffffffffffffffffffffff16021790555060208201518160010155604082015181600201556060820151816003019081610815919061210f565b5050507f558a0d5d5468d74b0db24c74eb348b42271c2ebb4c9e953ced38aaed95fa436182338360405161084b939291906121e1565b60405180910390a15050565b6001818154811061086b5761086a611e5c565b5b906000526020600020906009020160070160009054906101000a900460ff16156108ca576040517f08c379a00000000000000000000000000000000000000000000000000000000081526004016108c190612264565b60405180910390fd5b600181815481106108de576108dd611e5c565b5b906000526020600020906009020160070160019054906101000a900473ffffffffffffffffffffffffffffffffffffffff1673ffffffffffffffffffffffffffffffffffffffff163373ffffffffffffffffffffffffffffffffffffffff160361097d576040517f08c379a0000000000000000000000000000000000000000000000000000000008152600401610974906122d0565b60405180910390fd5b3373ffffffffffffffffffffffffffffffffffffffff16600182815481106109a8576109a7611e5c565b5b906000526020600020906009020160040160009054906101000a900473ffffffffffffffffffffffffffffffffffffffff1673ffffffffffffffffffffffffffffffffffffffff1614610a30576040517f08c379a0000000000000000000000000000000000000000000000000000000008152600401610a279061233c565b60405180910390fd5b60018181548110610a4457610a43611e5c565b5b906000526020600020906009020160050154341015610a6257600080fd5b60018181548110610a7657610a75611e5c565b5b906000526020600020906009020160010160009054906101000a900473ffffffffffffffffffffffffffffffffffffffff1673ffffffffffffffffffffffffffffffffffffffff166108fc349081150290604051600060405180830381858888f19350505050158015610aed573d6000803e3d6000fd5b5060008082815260200190815260200160002060405180608001604052803373ffffffffffffffffffffffffffffffffffffffff16815260200160018481548110610b3b57610b3a611e5c565b5b90600052602060002090600902016005015481526020014281526020016040518060400160405280601381526020017f7061696420616e642062696420626f7567687400000000000000000000000000815250815250908060018154018082558091505060019003906000526020600020906004020160009091909190915060008201518160000160006101000a81548173ffffffffffffffffffffffffffffffffffffffff021916908373ffffffffffffffffffffffffffffffffffffffff16021790555060208201518160010155604082015181600201556060820151816003019081610c2a919061210f565b5050503360018281548110610c4257610c41611e5c565b5b906000526020600020906009020160070160016101000a81548173ffffffffffffffffffffffffffffffffffffffff021916908373ffffffffffffffffffffffffffffffffffffffff16021790555050565b60006020528160005260406000208181548110610cb057600080fd5b9060005260206000209060040201600091509150508060000160009054906101000a900473ffffffffffffffffffffffffffffffffffffffff1690806001015490806002015490806003018054610d0690611dbf565b80601f0160208091040260200160405190810160405280929190818152602001828054610d3290611dbf565b8015610d7f5780601f10610d5457610100808354040283529160200191610d7f565b820191906000526020600020905b815481529060010190602001808311610d6257829003601f168201915b5050505050905084565b600160405180610140016040528060025481526020013373ffffffffffffffffffffffffffffffffffffffff1681526020018581526020018481526020013373ffffffffffffffffffffffffffffffffffffffff1681526020018481526020014281526020016001151581526020013373ffffffffffffffffffffffffffffffffffffffff1681526020018381525090806001815401808255809150506001900390600052602060002090600902016000909190919091506000820151816000015560208201518160010160006101000a81548173ffffffffffffffffffffffffffffffffffffffff021916908373ffffffffffffffffffffffffffffffffffffffff1602179055506040820151816002019081610ea7919061210f565b506060820151816003015560808201518160040160006101000a81548173ffffffffffffffffffffffffffffffffffffffff021916908373ffffffffffffffffffffffffffffffffffffffff16021790555060a0820151816005015560c0820151816006015560e08201518160070160006101000a81548160ff0219169083151502179055506101008201518160070160016101000a81548173ffffffffffffffffffffffffffffffffffffffff021916908373ffffffffffffffffffffffffffffffffffffffff160217905550610120820151816008019081610f8b919061210f565b50505060026000815480929190610fa19061238b565b9190505550505050565b3373ffffffffffffffffffffffffffffffffffffffff1660018281548110610fd657610fd5611e5c565b5b906000526020600020906009020160010160009054906101000a900473ffffffffffffffffffffffffffffffffffffffff1673ffffffffffffffffffffffffffffffffffffffff161461105e576040517f08c379a000000000000000000000000000000000000000000000000000000000815260040161105590612445565b60405180910390fd5b6001818154811061107257611071611e5c565b5b906000526020600020906009020160070160009054906101000a900460ff166110d0576040517f08c379a00000000000000000000000000000000000000000000000000000000081526004016110c790611ed7565b60405180910390fd5b600181815481106110e4576110e3611e5c565b5b9060005260206000209060090201600301546001828154811061110a57611109611e5c565b5b9060005260206000209060090201600501541161115c576040517f08c379a0000000000000000000000000000000000000000000000000000000008152600401611153906124b1565b60405180910390fd5b60008082815260200190815260200160002060405180608001604052803373ffffffffffffffffffffffffffffffffffffffff168152602001600184815481106111a9576111a8611e5c565b5b90600052602060002090600902016005015481526020014281526020016040518060400160405280600981526020017f62696420656e6465640000000000000000000000000000000000000000000000815250815250908060018154018082558091505060019003906000526020600020906004020160009091909190915060008201518160000160006101000a81548173ffffffffffffffffffffffffffffffffffffffff021916908373ffffffffffffffffffffffffffffffffffffffff16021790555060208201518160010155604082015181600201556060820151816003019081611298919061210f565b5050506000600182815481106112b1576112b0611e5c565b5b906000526020600020906009020160070160006101000a81548160ff02191690831515021790555050565b60606001805480602002602001604051908101604052809291908181526020016000905b8282101561159c578382906000526020600020906009020160405180610140016040529081600082015481526020016001820160009054906101000a900473ffffffffffffffffffffffffffffffffffffffff1673ffffffffffffffffffffffffffffffffffffffff1673ffffffffffffffffffffffffffffffffffffffff16815260200160028201805461139490611dbf565b80601f01602080910402602001604051908101604052809291908181526020018280546113c090611dbf565b801561140d5780601f106113e25761010080835404028352916020019161140d565b820191906000526020600020905b8154815290600101906020018083116113f057829003601f168201915b50505050508152602001600382015481526020016004820160009054906101000a900473ffffffffffffffffffffffffffffffffffffffff1673ffffffffffffffffffffffffffffffffffffffff1673ffffffffffffffffffffffffffffffffffffffff16815260200160058201548152602001600682015481526020016007820160009054906101000a900460ff161515151581526020016007820160019054906101000a900473ffffffffffffffffffffffffffffffffffffffff1673ffffffffffffffffffffffffffffffffffffffff1673ffffffffffffffffffffffffffffffffffffffff16815260200160088201805461150b90611dbf565b80601f016020809104026020016040519081016040528092919081815260200182805461153790611dbf565b80156115845780601f1061155957610100808354040283529160200191611584565b820191906000526020600020905b81548152906001019060200180831161156757829003601f168201915b50505050508152505081526020019060010190611300565b50505050905090565b6000604051905090565b600080fd5b600080fd5b6000819050919050565b6115cc816115b9565b81146115d757600080fd5b50565b6000813590506115e9816115c3565b92915050565b600060208284031215611605576116046115af565b5b6000611613848285016115da565b91505092915050565b600081519050919050565b600082825260208201905092915050565b6000819050602082019050919050565b600073ffffffffffffffffffffffffffffffffffffffff82169050919050565b600061167382611648565b9050919050565b61168381611668565b82525050565b611692816115b9565b82525050565b600081519050919050565b600082825260208201905092915050565b60005b838110156116d25780820151818401526020810190506116b7565b60008484015250505050565b6000601f19601f8301169050919050565b60006116fa82611698565b61170481856116a3565b93506117148185602086016116b4565b61171d816116de565b840191505092915050565b6000608083016000830151611740600086018261167a565b5060208301516117536020860182611689565b5060408301516117666040860182611689565b506060830151848203606086015261177e82826116ef565b9150508091505092915050565b60006117978383611728565b905092915050565b6000602082019050919050565b60006117b78261161c565b6117c18185611627565b9350836020820285016117d385611638565b8060005b8581101561180f57848403895281516117f0858261178b565b94506117fb8361179f565b925060208a019950506001810190506117d7565b50829750879550505050505092915050565b6000602082019050818103600083015261183b81846117ac565b905092915050565b61184c816115b9565b82525050565b61185b81611668565b82525050565b600082825260208201905092915050565b600061187d82611698565b6118878185611861565b93506118978185602086016116b4565b6118a0816116de565b840191505092915050565b60008115159050919050565b6118c0816118ab565b82525050565b6000610140820190506118dc600083018d611843565b6118e9602083018c611852565b81810360408301526118fb818b611872565b905061190a606083018a611843565b6119176080830189611852565b61192460a0830188611843565b61193160c0830187611843565b61193e60e08301866118b7565b61194c610100830185611852565b81810361012083015261195f8184611872565b90509b9a5050505050505050505050565b60008060408385031215611987576119866115af565b5b6000611995858286016115da565b92505060206119a6858286016115da565b9150509250929050565b60006080820190506119c56000830187611852565b6119d26020830186611843565b6119df6040830185611843565b81810360608301526119f18184611872565b905095945050505050565b600080fd5b600080fd5b7f4e487b7100000000000000000000000000000000000000000000000000000000600052604160045260246000fd5b611a3e826116de565b810181811067ffffffffffffffff82111715611a5d57611a5c611a06565b5b80604052505050565b6000611a706115a5565b9050611a7c8282611a35565b919050565b600067ffffffffffffffff821115611a9c57611a9b611a06565b5b611aa5826116de565b9050602081019050919050565b82818337600083830152505050565b6000611ad4611acf84611a81565b611a66565b905082815260208101848484011115611af057611aef611a01565b5b611afb848285611ab2565b509392505050565b600082601f830112611b1857611b176119fc565b5b8135611b28848260208601611ac1565b91505092915050565b600080600060608486031215611b4a57611b496115af565b5b600084013567ffffffffffffffff811115611b6857611b676115b4565b5b611b7486828701611b03565b9350506020611b85868287016115da565b925050604084013567ffffffffffffffff811115611ba657611ba56115b4565b5b611bb286828701611b03565b9150509250925092565b600081519050919050565b600082825260208201905092915050565b6000819050602082019050919050565b611bf1816118ab565b82525050565b600061014083016000830151611c106000860182611689565b506020830151611c23602086018261167a565b5060408301518482036040860152611c3b82826116ef565b9150506060830151611c506060860182611689565b506080830151611c63608086018261167a565b5060a0830151611c7660a0860182611689565b5060c0830151611c8960c0860182611689565b5060e0830151611c9c60e0860182611be8565b50610100830151611cb161010086018261167a565b50610120830151848203610120860152611ccb82826116ef565b9150508091505092915050565b6000611ce48383611bf7565b905092915050565b6000602082019050919050565b6000611d0482611bbc565b611d0e8185611bc7565b935083602082028501611d2085611bd8565b8060005b85811015611d5c5784840389528151611d3d8582611cd8565b9450611d4883611cec565b925060208a01995050600181019050611d24565b50829750879550505050505092915050565b60006020820190508181036000830152611d888184611cf9565b905092915050565b7f4e487b7100000000000000000000000000000000000000000000000000000000600052602260045260246000fd5b60006002820490506001821680611dd757607f821691505b602082108103611dea57611de9611d90565b5b50919050565b7f4e6f7420612076616c69642061756374696f6e20696400000000000000000000600082015250565b6000611e26601683611861565b9150611e3182611df0565b602082019050919050565b60006020820190508181036000830152611e5581611e19565b9050919050565b7f4e487b7100000000000000000000000000000000000000000000000000000000600052603260045260246000fd5b7f41756374696f6e206973206e6f7420696e2070726f6772657373000000000000600082015250565b6000611ec1601a83611861565b9150611ecc82611e8b565b602082019050919050565b60006020820190508181036000830152611ef081611eb4565b9050919050565b7f42696420686967686572207468616e206c617374206269640000000000000000600082015250565b6000611f2d601883611861565b9150611f3882611ef7565b602082019050919050565b60006020820190508181036000830152611f5c81611f20565b9050919050565b60008190508160005260206000209050919050565b60006020601f8301049050919050565b600082821b905092915050565b600060088302611fc57fffffffffffffffffffffffffffffffffffffffffffffffffffffffffffffffff82611f88565b611fcf8683611f88565b95508019841693508086168417925050509392505050565b6000819050919050565b600061200c612007612002846115b9565b611fe7565b6115b9565b9050919050565b6000819050919050565b61202683611ff1565b61203a61203282612013565b848454611f95565b825550505050565b600090565b61204f612042565b61205a81848461201d565b505050565b5b8181101561207e57612073600082612047565b600181019050612060565b5050565b601f8211156120c35761209481611f63565b61209d84611f78565b810160208510156120ac578190505b6120c06120b885611f78565b83018261205f565b50505b505050565b600082821c905092915050565b60006120e6600019846008026120c8565b1980831691505092915050565b60006120ff83836120d5565b9150826002028217905092915050565b61211882611698565b67ffffffffffffffff81111561213157612130611a06565b5b61213b8254611dbf565b612146828285612082565b600060209050601f8311600181146121795760008415612167578287015190505b61217185826120f3565b8655506121d9565b601f19841661218786611f63565b60005b828110156121af5784890151825560018201915060208501945060208101905061218a565b868310156121cc57848901516121c8601f8916826120d5565b8355505b6001600288020188555050505b505050505050565b60006060820190506121f66000830186611843565b6122036020830185611852565b6122106040830184611843565b949350505050565b7f41756374696f6e20697320696e2070726f677265737300000000000000000000600082015250565b600061224e601683611861565b915061225982612218565b602082019050919050565b6000602082019050818103600083015261227d81612241565b9050919050565b7f4f776e65722063616e742062757920697420616761696e000000000000000000600082015250565b60006122ba601783611861565b91506122c582612284565b602082019050919050565b600060208201905081810360008301526122e9816122ad565b9050919050565b7f596f7520617265206e6f74206869676865737420626964646572000000000000600082015250565b6000612326601a83611861565b9150612331826122f0565b602082019050919050565b6000602082019050818103600083015261235581612319565b9050919050565b7f4e487b7100000000000000000000000000000000000000000000000000000000600052601160045260246000fd5b6000612396826115b9565b91507fffffffffffffffffffffffffffffffffffffffffffffffffffffffffffffffff82036123c8576123c761235c565b5b600182019050919050565b7f596f7520617265206e6f742063726561746572206f662074686520617563746960008201527f6f6e000000000000000000000000000000000000000000000000000000000000602082015250565b600061242f602283611861565b915061243a826123d3565b604082019050919050565b6000602082019050818103600083015261245e81612422565b9050919050565b7f42696420686173206e6f74207374617274656420796574000000000000000000600082015250565b600061249b601783611861565b91506124a682612465565b602082019050919050565b600060208201905081810360008301526124ca8161248e565b905091905056fea2646970667358221220b3db977f9b6397c84ae23461d7c061eae80f6951877ad11a7615b3800c0a2a2264736f6c63430008110033",
  "linkReferences": {},
  "deployedLinkReferences": {}
}